:1000000029C100004CC100004AC1000048C10000E5
:1000100046C1000044C1000042C1000040C10000D0
:100020003EC100003CC1000052C1000038C10000C8
:1000300036C1000097C100005CC100007FC1000014
:100040002EC100002CC100002AC1000028C1000000
:1000500026C1000000C1814001C0804101C0804133
:1000600000C1814001C0804100C1814000C1814088
:1000700001C0804101C0804100C1814000C1814078
:1000800001C0804100C1814001C0804101C0804168
:1000900000C1814001C0804100C1814000C1814058
:1000A00001C0804100C1814001C0804101C0804148
:1000B00000C1814000C1814001C0804101C0804138
:1000C00000C1814001C0804100C1814000C1814028
:1000D00001C0804101C0804100C1814000C1814018
:1000E00001C0804100C1814001C0804101C0804108
:1000F00000C1814000C1814001C0804101C08041F8
:1001000000C1814001C0804100C1814000C18140E7
:1001100001C0804100C1814001C0804101C08041D7
:1001200000C1814001C0804100C1814000C18140C7
:1001300001C0804101C0804100C1814000C18140B7
:1001400001C0804100C1814001C0804101C08041A7
:1001500000C1814000C0C101C30302C2C60607C777
:1001600005C5C404CC0C0DCD0FCFCE0E0ACACB0BE7
:10017000C90908C8D81819D91BDBDA1A1EDEDF1F17
:10018000DD1D1CDC14D4D515D71716D6D21213D307
:1001900011D1D010F03031F133F3F23236F6F737B7
:1001A000F53534F43CFCFD3DFF3F3EFEFA3A3BFBA7
:1001B00039F9F83828E8E929EB2B2AEAEE2E2FEF57
:1001C0002DEDEC2CE42425E527E7E62622E2E323C7
:1001D000E12120E0A06061A163A3A26266A6A767F7
:1001E000A56564A46CACAD6DAF6F6EAEAA6A6BAB67
:1001F00069A9A86878B8B979BB7B7ABABE7E7FBF97
:100200007DBDBC7CB47475B577B7B67672B2B37386
:10021000B17170B050909151935352929656579736
:10022000559594549C5C5D9D5F9F9E5E5A9A9B5B26
:1002300099595898884849894B8B8A4A4E8E8F4FD6
:100240008D4D4C8C44848545874746868242438346
:100250004181804011241FBECFE5D8E0DEBFCDBF75
:100260001BBA8FEF8ABB12BA84EC81BB83E389B9D6
:100270001BB81AB88EE880BD1DBC1CBC87EA91E68D
:100280009BBD8ABD1FBC8BE08EBD10E0A0E6B0E038
:1002900001C01D92A138B107E1F797D0ADC1B0CE32
:1002A0008093610010926000539A8AB18F768AB968
:1002B00090916000E3E6F0E0E90FF11D80818CB9D8
:1002C0009F5F909360008AB180668AB908951F92FB
:1002D0000F920FB60F9211248F938AB18F768AB93D
:1002E00083B7887F83BF8F910F900FBE0F901F90B1
:1002F00018951F920F920FB60F9211248F939F9310
:10030000EF93FF939091600080916100981760F4E3
:1003100080916000E82FF0E0ED59FF4F90819CB98B
:100320008F5F8093600001C05598FF91EF919F917E
:100330008F910F900FBE0F901F9018951F920F92E4
:100340000FB60F9211248F938AB187798AB98AB137
:1003500080698AB9109260008F910F900FBE0F9044
:100360001F9018951F920F920FB60F9211242F9382
:100370003F938F939F93EF93FF932BB13CB112BEAA
:100380008CE78CBF8CE083BF82E089BF82B390E4AE
:10039000892782BB2C7171F4809160008F3050F4FA
:1003A00080916000E82FF0E0EE58FF4F30838F5FC0
:1003B00080936000FF91EF919F918F913F912F91DA
:1003C0000F900FBE0F901F9018958FEF80937200C3
:1003D00080936300789490E008B604FE5DC088B70F
:1003E000806188BF82B3805882BB933089F194309A
:1003F00028F49130B1F0923008F509C0953009F435
:100400003DC0953080F1963009F046C044C083E687
:1004100090E061E041E050E023E066D041DF91E010
:100420003BC04091600082E790E063E670E08AD0D4
:1004300080936200882369F592E02EC083E690E005
:1004400061E044E050E021E04FD02ADF93E024C097
:100450004091600082E790E063E670E073D088230B
:10046000C1F494E019C083E690E061E041E050E01F
:100470002BE030E050D014DF95E00EC040916000DA
:1004800082E790E063E670E05DD0809362008823AD
:1004900011F096E001C090E0809162008BBB9CCF90
:1004A000CF93DF93582F282F392FD9012FEF4FEFFC
:1004B0000EC08D914827C42FD0E0CE018C5A9F4F9B
:1004C000FC0144914227CC5ADE4FFE0124918A2F31
:1004D000851B861770F3942F80E030E0282B392B92
:1004E000C901DF91CF9108950F931F938C01FC01F7
:1004F000608383E081834150504052834383148260
:100500002583C80166E0CCDFF8019683878388E005
:100510001F910F9108950F931F938C01FC0160832D
:1005200086E0818341505040528343833483258346
:10053000C80166E0B5DFF8019683878388E01F91E4
:100540000F910895CF92DF92EF92FF920F931F9336
:10055000CF93DF93EC016B01443010F481E043C092
:100560009881FB018081981711F082E03CC099814D
:10057000FB018181981711F083E035C0E42EFF2440
:10058000FE01EE0DFF1D3297119100E08081080FF2
:10059000111D4250CE01642F83DF0817190711F097
:1005A00085E021C08981833059F48A8190E02BEF66
:1005B0003FEFE20EF31E8E159F05A1F084E013C0FD
:1005C000863081F4FE01D60122E0928112968C9150
:1005D0001297981711F086E006C02F5F319611969A
:1005E000263099F780E0DF91CF911F910F91FF9016
:0C05F000EF90DF90CF900895F894FFCFBB
:00000001FF
